{
  "_format": "hh-sol-artifact-1",
  "contractName": "Degree",
  "sourceName": "contracts/Degree.sol",
  "abi": [
    {
      "inputs": [
        {
          "internalType": "address",
          "name": "_admin",
          "type": "address"
        },
        {
          "internalType": "address",
          "name": "_burnerAddress",
          "type": "address"
        }
      ],
      "stateMutability": "nonpayable",
      "type": "constructor"
    },
    {
      "anonymous": false,
      "inputs": [
        {
          "indexed": true,
          "internalType": "address",
          "name": "owner",
          "type": "address"
        },
        {
          "indexed": true,
          "internalType": "address",
          "name": "approved",
          "type": "address"
        },
        {
          "indexed": true,
          "internalType": "uint256",
          "name": "tokenId",
          "type": "uint256"
        }
      ],
      "name": "Approval",
      "type": "event"
    },
    {
      "anonymous": false,
      "inputs": [
        {
          "indexed": true,
          "internalType": "address",
          "name": "owner",
          "type": "address"
        },
        {
          "indexed": true,
          "internalType": "address",
          "name": "operator",
          "type": "address"
        },
        {
          "indexed": false,
          "internalType": "bool",
          "name": "approved",
          "type": "bool"
        }
      ],
      "name": "ApprovalForAll",
      "type": "event"
    },
    {
      "anonymous": false,
      "inputs": [
        {
          "indexed": true,
          "internalType": "address",
          "name": "previousOwner",
          "type": "address"
        },
        {
          "indexed": true,
          "internalType": "address",
          "name": "newOwner",
          "type": "address"
        }
      ],
      "name": "OwnershipTransferred",
      "type": "event"
    },
    {
      "anonymous": false,
      "inputs": [
        {
          "indexed": true,
          "internalType": "address",
          "name": "from",
          "type": "address"
        },
        {
          "indexed": true,
          "internalType": "address",
          "name": "to",
          "type": "address"
        },
        {
          "indexed": true,
          "internalType": "uint256",
          "name": "tokenId",
          "type": "uint256"
        }
      ],
      "name": "Transfer",
      "type": "event"
    },
    {
      "inputs": [
        {
          "internalType": "address",
          "name": "to",
          "type": "address"
        },
        {
          "internalType": "uint256",
          "name": "tokenId",
          "type": "uint256"
        }
      ],
      "name": "approve",
      "outputs": [],
      "stateMutability": "nonpayable",
      "type": "function"
    },
    {
      "inputs": [
        {
          "internalType": "address",
          "name": "owner",
          "type": "address"
        }
      ],
      "name": "balanceOf",
      "outputs": [
        {
          "internalType": "uint256",
          "name": "",
          "type": "uint256"
        }
      ],
      "stateMutability": "view",
      "type": "function"
    },
    {
      "inputs": [
        {
          "internalType": "uint256",
          "name": "tokenId",
          "type": "uint256"
        }
      ],
      "name": "getApproved",
      "outputs": [
        {
          "internalType": "address",
          "name": "",
          "type": "address"
        }
      ],
      "stateMutability": "view",
      "type": "function"
    },
    {
      "inputs": [],
      "name": "getContractAddress",
      "outputs": [
        {
          "internalType": "address",
          "name": "",
          "type": "address"
        }
      ],
      "stateMutability": "view",
      "type": "function"
    },
    {
      "inputs": [],
      "name": "getTokenIdCount",
      "outputs": [
        {
          "internalType": "uint256",
          "name": "",
          "type": "uint256"
        }
      ],
      "stateMutability": "view",
      "type": "function"
    },
    {
      "inputs": [
        {
          "internalType": "address",
          "name": "owner",
          "type": "address"
        },
        {
          "internalType": "address",
          "name": "operator",
          "type": "address"
        }
      ],
      "name": "isApprovedForAll",
      "outputs": [
        {
          "internalType": "bool",
          "name": "",
          "type": "bool"
        }
      ],
      "stateMutability": "view",
      "type": "function"
    },
    {
      "inputs": [],
      "name": "name",
      "outputs": [
        {
          "internalType": "string",
          "name": "",
          "type": "string"
        }
      ],
      "stateMutability": "view",
      "type": "function"
    },
    {
      "inputs": [],
      "name": "owner",
      "outputs": [
        {
          "internalType": "address",
          "name": "",
          "type": "address"
        }
      ],
      "stateMutability": "view",
      "type": "function"
    },
    {
      "inputs": [
        {
          "internalType": "uint256",
          "name": "tokenId",
          "type": "uint256"
        }
      ],
      "name": "ownerOf",
      "outputs": [
        {
          "internalType": "address",
          "name": "",
          "type": "address"
        }
      ],
      "stateMutability": "view",
      "type": "function"
    },
    {
      "inputs": [],
      "name": "renounceOwnership",
      "outputs": [],
      "stateMutability": "nonpayable",
      "type": "function"
    },
    {
      "inputs": [
        {
          "internalType": "address",
          "name": "to",
          "type": "address"
        },
        {
          "internalType": "string",
          "name": "uri",
          "type": "string"
        }
      ],
      "name": "safeMint",
      "outputs": [],
      "stateMutability": "nonpayable",
      "type": "function"
    },
    {
      "inputs": [
        {
          "internalType": "address",
          "name": "from",
          "type": "address"
        },
        {
          "internalType": "address",
          "name": "to",
          "type": "address"
        },
        {
          "internalType": "uint256",
          "name": "tokenId",
          "type": "uint256"
        }
      ],
      "name": "safeTransferFrom",
      "outputs": [],
      "stateMutability": "nonpayable",
      "type": "function"
    },
    {
      "inputs": [
        {
          "internalType": "address",
          "name": "from",
          "type": "address"
        },
        {
          "internalType": "address",
          "name": "to",
          "type": "address"
        },
        {
          "internalType": "uint256",
          "name": "tokenId",
          "type": "uint256"
        },
        {
          "internalType": "bytes",
          "name": "data",
          "type": "bytes"
        }
      ],
      "name": "safeTransferFrom",
      "outputs": [],
      "stateMutability": "nonpayable",
      "type": "function"
    },
    {
      "inputs": [
        {
          "internalType": "address",
          "name": "operator",
          "type": "address"
        },
        {
          "internalType": "bool",
          "name": "approved",
          "type": "bool"
        }
      ],
      "name": "setApprovalForAll",
      "outputs": [],
      "stateMutability": "nonpayable",
      "type": "function"
    },
    {
      "inputs": [
        {
          "internalType": "bytes4",
          "name": "interfaceId",
          "type": "bytes4"
        }
      ],
      "name": "supportsInterface",
      "outputs": [
        {
          "internalType": "bool",
          "name": "",
          "type": "bool"
        }
      ],
      "stateMutability": "view",
      "type": "function"
    },
    {
      "inputs": [],
      "name": "symbol",
      "outputs": [
        {
          "internalType": "string",
          "name": "",
          "type": "string"
        }
      ],
      "stateMutability": "view",
      "type": "function"
    },
    {
      "inputs": [
        {
          "internalType": "uint256",
          "name": "tokenId",
          "type": "uint256"
        }
      ],
      "name": "tokenURI",
      "outputs": [
        {
          "internalType": "string",
          "name": "",
          "type": "string"
        }
      ],
      "stateMutability": "view",
      "type": "function"
    },
    {
      "inputs": [
        {
          "internalType": "address",
          "name": "from",
          "type": "address"
        },
        {
          "internalType": "address",
          "name": "to",
          "type": "address"
        },
        {
          "internalType": "uint256",
          "name": "tokenId",
          "type": "uint256"
        }
      ],
      "name": "transferFrom",
      "outputs": [],
      "stateMutability": "nonpayable",
      "type": "function"
    },
    {
      "inputs": [
        {
          "internalType": "address",
          "name": "newOwner",
          "type": "address"
        }
      ],
      "name": "transferOwnership",
      "outputs": [],
      "stateMutability": "nonpayable",
      "type": "function"
    },
    {
      "inputs": [
        {
          "internalType": "uint256",
          "name": "tokenId",
          "type": "uint256"
        },
        {
          "internalType": "string",
          "name": "uri",
          "type": "string"
        }
      ],
      "name": "updateTokenURI",
      "outputs": [],
      "stateMutability": "nonpayable",
      "type": "function"
    }
  ],
  "bytecode": "0x60c06040523480156200001157600080fd5b506040516200360b3803806200360b833981810160405281019062000037919062000291565b6040518060400160405280600681526020017f44656772656500000000000000000000000000000000000000000000000000008152506040518060400160405280600381526020017f44454700000000000000000000000000000000000000000000000000000000008152508160009081620000b4919062000552565b508060019081620000c6919062000552565b505050620000e9620000dd6200015960201b60201c565b6200016160201b60201c565b8173ffffffffffffffffffffffffffffffffffffffff1660808173ffffffffffffffffffffffffffffffffffffffff16815250508073ffffffffffffffffffffffffffffffffffffffff1660a08173ffffffffffffffffffffffffffffffffffffffff1681525050505062000639565b600033905090565b6000600760009054906101000a900473ffffffffffffffffffffffffffffffffffffffff16905081600760006101000a81548173ffffffffffffffffffffffffffffffffffffffff021916908373ffffffffffffffffffffffffffffffffffffffff1602179055508173ffffffffffffffffffffffffffffffffffffffff168173ffffffffffffffffffffffffffffffffffffffff167f8be0079c531659141344cd1fd0a4f28419497f9722a3daafe3b4186f6b6457e060405160405180910390a35050565b600080fd5b600073ffffffffffffffffffffffffffffffffffffffff82169050919050565b600062000259826200022c565b9050919050565b6200026b816200024c565b81146200027757600080fd5b50565b6000815190506200028b8162000260565b92915050565b60008060408385031215620002ab57620002aa62000227565b5b6000620002bb858286016200027a565b9250506020620002ce858286016200027a565b9150509250929050565b600081519050919050565b7f4e487b7100000000000000000000000000000000000000000000000000000000600052604160045260246000fd5b7f4e487b7100000000000000000000000000000000000000000000000000000000600052602260045260246000fd5b600060028204905060018216806200035a57607f821691505b60208210810362000370576200036f62000312565b5b50919050565b60008190508160005260206000209050919050565b60006020601f8301049050919050565b600082821b905092915050565b600060088302620003da7fffffffffffffffffffffffffffffffffffffffffffffffffffffffffffffffff826200039b565b620003e686836200039b565b95508019841693508086168417925050509392505050565b6000819050919050565b6000819050919050565b6000620004336200042d6200042784620003fe565b62000408565b620003fe565b9050919050565b6000819050919050565b6200044f8362000412565b620004676200045e826200043a565b848454620003a8565b825550505050565b600090565b6200047e6200046f565b6200048b81848462000444565b505050565b5b81811015620004b357620004a760008262000474565b60018101905062000491565b5050565b601f8211156200050257620004cc8162000376565b620004d7846200038b565b81016020851015620004e7578190505b620004ff620004f6856200038b565b83018262000490565b50505b505050565b600082821c905092915050565b6000620005276000198460080262000507565b1980831691505092915050565b600062000542838362000514565b9150826002028217905092915050565b6200055d82620002d8565b67ffffffffffffffff811115620005795762000578620002e3565b5b62000585825462000341565b62000592828285620004b7565b600060209050601f831160018114620005ca5760008415620005b5578287015190505b620005c1858262000534565b86555062000631565b601f198416620005da8662000376565b60005b828110156200060457848901518255600182019150602085019450602081019050620005dd565b8683101562000624578489015162000620601f89168262000514565b8355505b6001600288020188555050505b505050505050565b60805160a051612faf6200065c6000396000505060006106a40152612faf6000f3fe608060405234801561001057600080fd5b506004361061012c5760003560e01c8063715018a6116100ad578063c87b56dd11610071578063c87b56dd1461031b578063d204c45e1461034b578063d8c34fd114610367578063e985e9c514610385578063f2fde38b146103b55761012c565b8063715018a61461029d5780638da5cb5b146102a757806395d89b41146102c5578063a22cb465146102e3578063b88d4fde146102ff5761012c565b806323b872dd116100f457806323b872dd146101e757806332a2c5d01461020357806342842e0e146102215780636352211e1461023d57806370a082311461026d5761012c565b806301ffc9a71461013157806306fdde0314610161578063081812fc1461017f578063095ea7b3146101af57806318e97fd1146101cb575b600080fd5b61014b60048036038101906101469190611c6c565b6103d1565b6040516101589190611cb4565b60405180910390f35b6101696104b3565b6040516101769190611d5f565b60405180910390f35b61019960048036038101906101949190611db7565b610545565b6040516101a69190611e25565b60405180910390f35b6101c960048036038101906101c49190611e6c565b61058b565b005b6101e560048036038101906101e09190611fe1565b6106a2565b005b61020160048036038101906101fc919061203d565b61075f565b005b61020b6107bf565b6040516102189190611e25565b60405180910390f35b61023b6004803603810190610236919061203d565b6107c7565b005b61025760048036038101906102529190611db7565b6107e7565b6040516102649190611e25565b60405180910390f35b61028760048036038101906102829190612090565b61086d565b60405161029491906120cc565b60405180910390f35b6102a5610924565b005b6102af610938565b6040516102bc9190611e25565b60405180910390f35b6102cd610962565b6040516102da9190611d5f565b60405180910390f35b6102fd60048036038101906102f89190612113565b6109f4565b005b610319600480360381019061031491906121f4565b610a0a565b005b61033560048036038101906103309190611db7565b610a6c565b6040516103429190611d5f565b60405180910390f35b61036560048036038101906103609190612277565b610a7e565b005b61036f610ad8565b60405161037c91906120cc565b60405180910390f35b61039f600480360381019061039a91906122d3565b610ae9565b6040516103ac9190611cb4565b60405180910390f35b6103cf60048036038101906103ca9190612090565b610b7d565b005b60007f80ac58cd000000000000000000000000000000000000000000000000000000007bffffffffffffffffffffffffffffffffffffffffffffffffffffffff1916827bffffffffffffffffffffffffffffffffffffffffffffffffffffffff1916148061049c57507f5b5e139f000000000000000000000000000000000000000000000000000000007bffffffffffffffffffffffffffffffffffffffffffffffffffffffff1916827bffffffffffffffffffffffffffffffffffffffffffffffffffffffff1916145b806104ac57506104ab82610c00565b5b9050919050565b6060600080546104c290612342565b80601f01602080910402602001604051908101604052809291908181526020018280546104ee90612342565b801561053b5780601f106105105761010080835404028352916020019161053b565b820191906000526020600020905b81548152906001019060200180831161051e57829003601f168201915b5050505050905090565b600061055082610c6a565b6004600083815260200190815260200160002060009054906101000a900473ffffffffffffffffffffffffffffffffffffffff169050919050565b6000610596826107e7565b90508073ffffffffffffffffffffffffffffffffffffffff168373ffffffffffffffffffffffffffffffffffffffff1603610606576040517f08c379a00000000000000000000000000000000000000000000000000000000081526004016105fd906123e5565b60405180910390fd5b8073ffffffffffffffffffffffffffffffffffffffff16610625610cb5565b73ffffffffffffffffffffffffffffffffffffffff16148061065457506106538161064e610cb5565b610ae9565b5b610693576040517f08c379a000000000000000000000000000000000000000000000000000000000815260040161068a90612477565b60405180910390fd5b61069d8383610cbd565b505050565b7f000000000000000000000000000000000000000000000000000000000000000073ffffffffffffffffffffffffffffffffffffffff163373ffffffffffffffffffffffffffffffffffffffff1614610730576040517f08c379a0000000000000000000000000000000000000000000000000000000008152600401610727906124e3565b60405180910390fd5b61073a8282610d76565b8060096000848152602001908152602001600020908161075a91906126af565b505050565b61077061076a610cb5565b82610de3565b6107af576040517f08c379a00000000000000000000000000000000000000000000000000000000081526004016107a6906127f3565b60405180910390fd5b6107ba838383610e78565b505050565b600030905090565b6107e283838360405180602001604052806000815250610a0a565b505050565b6000806107f383610fe5565b9050600073ffffffffffffffffffffffffffffffffffffffff168173ffffffffffffffffffffffffffffffffffffffff1603610864576040517f08c379a000000000000000000000000000000000000000000000000000000000815260040161085b9061285f565b60405180910390fd5b80915050919050565b60008073ffffffffffffffffffffffffffffffffffffffff168273ffffffffffffffffffffffffffffffffffffffff16036108dd576040517f08c379a00000000000000000000000000000000000000000000000000000000081526004016108d4906128f1565b60405180910390fd5b600360008373ffffffffffffffffffffffffffffffffffffffff1673ffffffffffffffffffffffffffffffffffffffff168152602001908152602001600020549050919050565b61092c611022565b61093660006110a0565b565b6000600760009054906101000a900473ffffffffffffffffffffffffffffffffffffffff16905090565b60606001805461097190612342565b80601f016020809104026020016040519081016040528092919081815260200182805461099d90612342565b80156109ea5780601f106109bf576101008083540402835291602001916109ea565b820191906000526020600020905b8154815290600101906020018083116109cd57829003601f168201915b5050505050905090565b610a066109ff610cb5565b8383611166565b5050565b610a1b610a15610cb5565b83610de3565b610a5a576040517f08c379a0000000000000000000000000000000000000000000000000000000008152600401610a51906127f3565b60405180910390fd5b610a66848484846112d2565b50505050565b6060610a778261132e565b9050919050565b610a86611022565b6000610a926008611440565b9050610a9e600861144e565b81600960008381526020019081526020016000209081610abe91906126af565b50610ac98382611464565b610ad38183610d76565b505050565b6000610ae46008611440565b905090565b6000600560008473ffffffffffffffffffffffffffffffffffffffff1673ffffffffffffffffffffffffffffffffffffffff16815260200190815260200160002060008373ffffffffffffffffffffffffffffffffffffffff1673ffffffffffffffffffffffffffffffffffffffff16815260200190815260200160002060009054906101000a900460ff16905092915050565b610b85611022565b600073ffffffffffffffffffffffffffffffffffffffff168173ffffffffffffffffffffffffffffffffffffffff1603610bf4576040517f08c379a0000000000000000000000000000000000000000000000000000000008152600401610beb90612983565b60405180910390fd5b610bfd816110a0565b50565b60007f01ffc9a7000000000000000000000000000000000000000000000000000000007bffffffffffffffffffffffffffffffffffffffffffffffffffffffff1916827bffffffffffffffffffffffffffffffffffffffffffffffffffffffff1916149050919050565b610c7381611482565b610cb2576040517f08c379a0000000000000000000000000000000000000000000000000000000008152600401610ca99061285f565b60405180910390fd5b50565b600033905090565b816004600083815260200190815260200160002060006101000a81548173ffffffffffffffffffffffffffffffffffffffff021916908373ffffffffffffffffffffffffffffffffffffffff160217905550808273ffffffffffffffffffffffffffffffffffffffff16610d30836107e7565b73ffffffffffffffffffffffffffffffffffffffff167f8c5be1e5ebec7d5bd14f71427d1e84f3dd0314c0f7b2291e5b200ac8c7c3b92560405160405180910390a45050565b610d7f82611482565b610dbe576040517f08c379a0000000000000000000000000000000000000000000000000000000008152600401610db590612a15565b60405180910390fd5b80600660008481526020019081526020016000209081610dde91906126af565b505050565b600080610def836107e7565b90508073ffffffffffffffffffffffffffffffffffffffff168473ffffffffffffffffffffffffffffffffffffffff161480610e315750610e308185610ae9565b5b80610e6f57508373ffffffffffffffffffffffffffffffffffffffff16610e5784610545565b73ffffffffffffffffffffffffffffffffffffffff16145b91505092915050565b8273ffffffffffffffffffffffffffffffffffffffff16610e98826107e7565b73ffffffffffffffffffffffffffffffffffffffff1614610eee576040517f08c379a0000000000000000000000000000000000000000000000000000000008152600401610ee590612aa7565b60405180910390fd5b600073ffffffffffffffffffffffffffffffffffffffff168273ffffffffffffffffffffffffffffffffffffffff1603610f5d576040517f08c379a0000000000000000000000000000000000000000000000000000000008152600401610f5490612b39565b60405180910390fd5b610f6a83838360016114c3565b8273ffffffffffffffffffffffffffffffffffffffff16610f8a826107e7565b73ffffffffffffffffffffffffffffffffffffffff1614610fe0576040517f08c379a0000000000000000000000000000000000000000000000000000000008152600401610fd790612aa7565b60405180910390fd5b505050565b60006002600083815260200190815260200160002060009054906101000a900473ffffffffffffffffffffffffffffffffffffffff169050919050565b61102a610cb5565b73ffffffffffffffffffffffffffffffffffffffff16611048610938565b73ffffffffffffffffffffffffffffffffffffffff161461109e576040517f08c379a000000000000000000000000000000000000000000000000000000000815260040161109590612ba5565b60405180910390fd5b565b6000600760009054906101000a900473ffffffffffffffffffffffffffffffffffffffff16905081600760006101000a81548173ffffffffffffffffffffffffffffffffffffffff021916908373ffffffffffffffffffffffffffffffffffffffff1602179055508173ffffffffffffffffffffffffffffffffffffffff168173ffffffffffffffffffffffffffffffffffffffff167f8be0079c531659141344cd1fd0a4f28419497f9722a3daafe3b4186f6b6457e060405160405180910390a35050565b8173ffffffffffffffffffffffffffffffffffffffff168373ffffffffffffffffffffffffffffffffffffffff16036111d4576040517f08c379a00000000000000000000000000000000000000000000000000000000081526004016111cb90612c11565b60405180910390fd5b80600560008573ffffffffffffffffffffffffffffffffffffffff1673ffffffffffffffffffffffffffffffffffffffff16815260200190815260200160002060008473ffffffffffffffffffffffffffffffffffffffff1673ffffffffffffffffffffffffffffffffffffffff16815260200190815260200160002060006101000a81548160ff0219169083151502179055508173ffffffffffffffffffffffffffffffffffffffff168373ffffffffffffffffffffffffffffffffffffffff167f17307eab39ab6107e8899845ad3d59bd9653f200f220920489ca2b5937696c31836040516112c59190611cb4565b60405180910390a3505050565b6112dd848484610e78565b6112e984848484611538565b611328576040517f08c379a000000000000000000000000000000000000000000000000000000000815260040161131f90612ca3565b60405180910390fd5b50505050565b606061133982610c6a565b600060066000848152602001908152602001600020805461135990612342565b80601f016020809104026020016040519081016040528092919081815260200182805461138590612342565b80156113d25780601f106113a7576101008083540402835291602001916113d2565b820191906000526020600020905b8154815290600101906020018083116113b557829003601f168201915b5050505050905060006113e36116bf565b905060008151036113f857819250505061143b565b60008251111561142d578082604051602001611415929190612cff565b6040516020818303038152906040529250505061143b565b611436846116d6565b925050505b919050565b600081600001549050919050565b6001816000016000828254019250508190555050565b61147e82826040518060200160405280600081525061173e565b5050565b60008073ffffffffffffffffffffffffffffffffffffffff166114a483610fe5565b73ffffffffffffffffffffffffffffffffffffffff1614159050919050565b600073ffffffffffffffffffffffffffffffffffffffff168473ffffffffffffffffffffffffffffffffffffffff1614611532576040517f08c379a000000000000000000000000000000000000000000000000000000000815260040161152990612d6f565b60405180910390fd5b50505050565b60006115598473ffffffffffffffffffffffffffffffffffffffff16611799565b156116b2578373ffffffffffffffffffffffffffffffffffffffff1663150b7a02611582610cb5565b8786866040518563ffffffff1660e01b81526004016115a49493929190612de4565b6020604051808303816000875af19250505080156115e057506040513d601f19601f820116820180604052508101906115dd9190612e45565b60015b611662573d8060008114611610576040519150601f19603f3d011682016040523d82523d6000602084013e611615565b606091505b50600081510361165a576040517f08c379a000000000000000000000000000000000000000000000000000000000815260040161165190612ca3565b60405180910390fd5b805181602001fd5b63150b7a0260e01b7bffffffffffffffffffffffffffffffffffffffffffffffffffffffff1916817bffffffffffffffffffffffffffffffffffffffffffffffffffffffff1916149150506116b7565b600190505b949350505050565b606060405180602001604052806000815250905090565b60606116e182610c6a565b60006116eb6116bf565b9050600081511161170b5760405180602001604052806000815250611736565b80611715846117bc565b604051602001611726929190612cff565b6040516020818303038152906040525b915050919050565b611748838361188a565b6117556000848484611538565b611794576040517f08c379a000000000000000000000000000000000000000000000000000000000815260040161178b90612ca3565b60405180910390fd5b505050565b6000808273ffffffffffffffffffffffffffffffffffffffff163b119050919050565b6060600060016117cb84611aa7565b01905060008167ffffffffffffffff8111156117ea576117e9611eb6565b5b6040519080825280601f01601f19166020018201604052801561181c5781602001600182028036833780820191505090505b509050600082602001820190505b60011561187f578080600190039150507f3031323334353637383961626364656600000000000000000000000000000000600a86061a8153600a858161187357611872612e72565b5b0494506000850361182a575b819350505050919050565b600073ffffffffffffffffffffffffffffffffffffffff168273ffffffffffffffffffffffffffffffffffffffff16036118f9576040517f08c379a00000000000000000000000000000000000000000000000000000000081526004016118f090612eed565b60405180910390fd5b61190281611482565b15611942576040517f08c379a000000000000000000000000000000000000000000000000000000000815260040161193990612f59565b60405180910390fd5b6119506000838360016114c3565b61195981611482565b15611999576040517f08c379a000000000000000000000000000000000000000000000000000000000815260040161199090612f59565b60405180910390fd5b6001600360008473ffffffffffffffffffffffffffffffffffffffff1673ffffffffffffffffffffffffffffffffffffffff16815260200190815260200160002060008282540192505081905550816002600083815260200190815260200160002060006101000a81548173ffffffffffffffffffffffffffffffffffffffff021916908373ffffffffffffffffffffffffffffffffffffffff160217905550808273ffffffffffffffffffffffffffffffffffffffff16600073ffffffffffffffffffffffffffffffffffffffff167fddf252ad1be2c89b69c2b068fc378daa952ba7f163c4a11628f55a4df523b3ef60405160405180910390a4611aa3600083836001611bfa565b5050565b600080600090507a184f03e93ff9f4daa797ed6e38ed64bf6a1f0100000000000000008310611b05577a184f03e93ff9f4daa797ed6e38ed64bf6a1f0100000000000000008381611afb57611afa612e72565b5b0492506040810190505b6d04ee2d6d415b85acef81000000008310611b42576d04ee2d6d415b85acef81000000008381611b3857611b37612e72565b5b0492506020810190505b662386f26fc100008310611b7157662386f26fc100008381611b6757611b66612e72565b5b0492506010810190505b6305f5e1008310611b9a576305f5e1008381611b9057611b8f612e72565b5b0492506008810190505b6127108310611bbf576127108381611bb557611bb4612e72565b5b0492506004810190505b60648310611be25760648381611bd857611bd7612e72565b5b0492506002810190505b600a8310611bf1576001810190505b80915050919050565b50505050565b6000604051905090565b600080fd5b600080fd5b60007fffffffff0000000000000000000000000000000000000000000000000000000082169050919050565b611c4981611c14565b8114611c5457600080fd5b50565b600081359050611c6681611c40565b92915050565b600060208284031215611c8257611c81611c0a565b5b6000611c9084828501611c57565b91505092915050565b60008115159050919050565b611cae81611c99565b82525050565b6000602082019050611cc96000830184611ca5565b92915050565b600081519050919050565b600082825260208201905092915050565b60005b83811015611d09578082015181840152602081019050611cee565b60008484015250505050565b6000601f19601f8301169050919050565b6000611d3182611ccf565b611d3b8185611cda565b9350611d4b818560208601611ceb565b611d5481611d15565b840191505092915050565b60006020820190508181036000830152611d798184611d26565b905092915050565b6000819050919050565b611d9481611d81565b8114611d9f57600080fd5b50565b600081359050611db181611d8b565b92915050565b600060208284031215611dcd57611dcc611c0a565b5b6000611ddb84828501611da2565b91505092915050565b600073ffffffffffffffffffffffffffffffffffffffff82169050919050565b6000611e0f82611de4565b9050919050565b611e1f81611e04565b82525050565b6000602082019050611e3a6000830184611e16565b92915050565b611e4981611e04565b8114611e5457600080fd5b50565b600081359050611e6681611e40565b92915050565b60008060408385031215611e8357611e82611c0a565b5b6000611e9185828601611e57565b9250506020611ea285828601611da2565b9150509250929050565b600080fd5b600080fd5b7f4e487b7100000000000000000000000000000000000000000000000000000000600052604160045260246000fd5b611eee82611d15565b810181811067ffffffffffffffff82111715611f0d57611f0c611eb6565b5b80604052505050565b6000611f20611c00565b9050611f2c8282611ee5565b919050565b600067ffffffffffffffff821115611f4c57611f4b611eb6565b5b611f5582611d15565b9050602081019050919050565b82818337600083830152505050565b6000611f84611f7f84611f31565b611f16565b905082815260208101848484011115611fa057611f9f611eb1565b5b611fab848285611f62565b509392505050565b600082601f830112611fc857611fc7611eac565b5b8135611fd8848260208601611f71565b91505092915050565b60008060408385031215611ff857611ff7611c0a565b5b600061200685828601611da2565b925050602083013567ffffffffffffffff81111561202757612026611c0f565b5b61203385828601611fb3565b9150509250929050565b60008060006060848603121561205657612055611c0a565b5b600061206486828701611e57565b935050602061207586828701611e57565b925050604061208686828701611da2565b9150509250925092565b6000602082840312156120a6576120a5611c0a565b5b60006120b484828501611e57565b91505092915050565b6120c681611d81565b82525050565b60006020820190506120e160008301846120bd565b92915050565b6120f081611c99565b81146120fb57600080fd5b50565b60008135905061210d816120e7565b92915050565b6000806040838503121561212a57612129611c0a565b5b600061213885828601611e57565b9250506020612149858286016120fe565b9150509250929050565b600067ffffffffffffffff82111561216e5761216d611eb6565b5b61217782611d15565b9050602081019050919050565b600061219761219284612153565b611f16565b9050828152602081018484840111156121b3576121b2611eb1565b5b6121be848285611f62565b509392505050565b600082601f8301126121db576121da611eac565b5b81356121eb848260208601612184565b91505092915050565b6000806000806080858703121561220e5761220d611c0a565b5b600061221c87828801611e57565b945050602061222d87828801611e57565b935050604061223e87828801611da2565b925050606085013567ffffffffffffffff81111561225f5761225e611c0f565b5b61226b878288016121c6565b91505092959194509250565b6000806040838503121561228e5761228d611c0a565b5b600061229c85828601611e57565b925050602083013567ffffffffffffffff8111156122bd576122bc611c0f565b5b6122c985828601611fb3565b9150509250929050565b600080604083850312156122ea576122e9611c0a565b5b60006122f885828601611e57565b925050602061230985828601611e57565b9150509250929050565b7f4e487b7100000000000000000000000000000000000000000000000000000000600052602260045260246000fd5b6000600282049050600182168061235a57607f821691505b60208210810361236d5761236c612313565b5b50919050565b7f4552433732313a20617070726f76616c20746f2063757272656e74206f776e6560008201527f7200000000000000000000000000000000000000000000000000000000000000602082015250565b60006123cf602183611cda565b91506123da82612373565b604082019050919050565b600060208201905081810360008301526123fe816123c2565b9050919050565b7f4552433732313a20617070726f76652063616c6c6572206973206e6f7420746f60008201527f6b656e206f776e6572206f7220617070726f76656420666f7220616c6c000000602082015250565b6000612461603d83611cda565b915061246c82612405565b604082019050919050565b6000602082019050818103600083015261249081612454565b9050919050565b7f4f6e6c7920616e2041646d696e20686173206163636573732100000000000000600082015250565b60006124cd601983611cda565b91506124d882612497565b602082019050919050565b600060208201905081810360008301526124fc816124c0565b9050919050565b60008190508160005260206000209050919050565b60006020601f8301049050919050565b600082821b905092915050565b6000600883026125657fffffffffffffffffffffffffffffffffffffffffffffffffffffffffffffffff82612528565b61256f8683612528565b95508019841693508086168417925050509392505050565b6000819050919050565b60006125ac6125a76125a284611d81565b612587565b611d81565b9050919050565b6000819050919050565b6125c683612591565b6125da6125d2826125b3565b848454612535565b825550505050565b600090565b6125ef6125e2565b6125fa8184846125bd565b505050565b5b8181101561261e576126136000826125e7565b600181019050612600565b5050565b601f8211156126635761263481612503565b61263d84612518565b8101602085101561264c578190505b61266061265885612518565b8301826125ff565b50505b505050565b600082821c905092915050565b600061268660001984600802612668565b1980831691505092915050565b600061269f8383612675565b9150826002028217905092915050565b6126b882611ccf565b67ffffffffffffffff8111156126d1576126d0611eb6565b5b6126db8254612342565b6126e6828285612622565b600060209050601f8311600181146127195760008415612707578287015190505b6127118582612693565b865550612779565b601f19841661272786612503565b60005b8281101561274f5784890151825560018201915060208501945060208101905061272a565b8683101561276c5784890151612768601f891682612675565b8355505b6001600288020188555050505b505050505050565b7f4552433732313a2063616c6c6572206973206e6f7420746f6b656e206f776e6560008201527f72206f7220617070726f76656400000000000000000000000000000000000000602082015250565b60006127dd602d83611cda565b91506127e882612781565b604082019050919050565b6000602082019050818103600083015261280c816127d0565b9050919050565b7f4552433732313a20696e76616c696420746f6b656e2049440000000000000000600082015250565b6000612849601883611cda565b915061285482612813565b602082019050919050565b600060208201905081810360008301526128788161283c565b9050919050565b7f4552433732313a2061646472657373207a65726f206973206e6f74206120766160008201527f6c6964206f776e65720000000000000000000000000000000000000000000000602082015250565b60006128db602983611cda565b91506128e68261287f565b604082019050919050565b6000602082019050818103600083015261290a816128ce565b9050919050565b7f4f776e61626c653a206e6577206f776e657220697320746865207a65726f206160008201527f6464726573730000000000000000000000000000000000000000000000000000602082015250565b600061296d602683611cda565b915061297882612911565b604082019050919050565b6000602082019050818103600083015261299c81612960565b9050919050565b7f45524337323155524953746f726167653a2055524920736574206f66206e6f6e60008201527f6578697374656e7420746f6b656e000000000000000000000000000000000000602082015250565b60006129ff602e83611cda565b9150612a0a826129a3565b604082019050919050565b60006020820190508181036000830152612a2e816129f2565b9050919050565b7f4552433732313a207472616e736665722066726f6d20696e636f72726563742060008201527f6f776e6572000000000000000000000000000000000000000000000000000000602082015250565b6000612a91602583611cda565b9150612a9c82612a35565b604082019050919050565b60006020820190508181036000830152612ac081612a84565b9050919050565b7f4552433732313a207472616e7366657220746f20746865207a65726f2061646460008201527f7265737300000000000000000000000000000000000000000000000000000000602082015250565b6000612b23602483611cda565b9150612b2e82612ac7565b604082019050919050565b60006020820190508181036000830152612b5281612b16565b9050919050565b7f4f776e61626c653a2063616c6c6572206973206e6f7420746865206f776e6572600082015250565b6000612b8f602083611cda565b9150612b9a82612b59565b602082019050919050565b60006020820190508181036000830152612bbe81612b82565b9050919050565b7f4552433732313a20617070726f766520746f2063616c6c657200000000000000600082015250565b6000612bfb601983611cda565b9150612c0682612bc5565b602082019050919050565b60006020820190508181036000830152612c2a81612bee565b9050919050565b7f4552433732313a207472616e7366657220746f206e6f6e20455243373231526560008201527f63656976657220696d706c656d656e7465720000000000000000000000000000602082015250565b6000612c8d603283611cda565b9150612c9882612c31565b604082019050919050565b60006020820190508181036000830152612cbc81612c80565b9050919050565b600081905092915050565b6000612cd982611ccf565b612ce38185612cc3565b9350612cf3818560208601611ceb565b80840191505092915050565b6000612d0b8285612cce565b9150612d178284612cce565b91508190509392505050565b7f5468697320746f6b656e2063616e2774206265207472616e7366657265642100600082015250565b6000612d59601f83611cda565b9150612d6482612d23565b602082019050919050565b60006020820190508181036000830152612d8881612d4c565b9050919050565b600081519050919050565b600082825260208201905092915050565b6000612db682612d8f565b612dc08185612d9a565b9350612dd0818560208601611ceb565b612dd981611d15565b840191505092915050565b6000608082019050612df96000830187611e16565b612e066020830186611e16565b612e1360408301856120bd565b8181036060830152612e258184612dab565b905095945050505050565b600081519050612e3f81611c40565b92915050565b600060208284031215612e5b57612e5a611c0a565b5b6000612e6984828501612e30565b91505092915050565b7f4e487b7100000000000000000000000000000000000000000000000000000000600052601260045260246000fd5b7f4552433732313a206d696e7420746f20746865207a65726f2061646472657373600082015250565b6000612ed7602083611cda565b9150612ee282612ea1565b602082019050919050565b60006020820190508181036000830152612f0681612eca565b9050919050565b7f4552433732313a20746f6b656e20616c7265616479206d696e74656400000000600082015250565b6000612f43601c83611cda565b9150612f4e82612f0d565b602082019050919050565b60006020820190508181036000830152612f7281612f36565b905091905056fea264697066735822122021afa8afd82ef098e2f75b2eadcb7c74f6309ea226a1560b8cf6e2d4bc0b7c0764736f6c63430008120033",
  "linkReferences": {},
  "deployedLinkReferences": {}
}