{
  "_format": "hh-sol-artifact-1",
  "contractName": "Marketplace",
  "sourceName": "contracts/Marketplace.sol",
  "abi": [
    {
      "inputs": [
        {
          "internalType": "address",
          "name": "_admin",
          "type": "address"
        }
      ],
      "stateMutability": "nonpayable",
      "type": "constructor"
    },
    {
      "inputs": [],
      "name": "Unauthorized",
      "type": "error"
    },
    {
      "inputs": [
        {
          "internalType": "uint256",
          "name": "price",
          "type": "uint256"
        },
        {
          "internalType": "uint256",
          "name": "royaltyFee",
          "type": "uint256"
        },
        {
          "internalType": "uint256",
          "name": "yield",
          "type": "uint256"
        },
        {
          "internalType": "address",
          "name": "creator",
          "type": "address"
        },
        {
          "internalType": "string",
          "name": "title",
          "type": "string"
        },
        {
          "internalType": "string",
          "name": "uri",
          "type": "string"
        }
      ],
      "name": "createCourse",
      "outputs": [],
      "stateMutability": "nonpayable",
      "type": "function"
    },
    {
      "inputs": [],
      "name": "updateCourse",
      "outputs": [],
      "stateMutability": "nonpayable",
      "type": "function"
    }
  ],
  "bytecode": "0x60a060405234801561001057600080fd5b506040516109bd3803806109bd833981810160405281019061003291906100cf565b8073ffffffffffffffffffffffffffffffffffffffff1660808173ffffffffffffffffffffffffffffffffffffffff1681525050506100fc565b600080fd5b600073ffffffffffffffffffffffffffffffffffffffff82169050919050565b600061009c82610071565b9050919050565b6100ac81610091565b81146100b757600080fd5b50565b6000815190506100c9816100a3565b92915050565b6000602082840312156100e5576100e461006c565b5b60006100f3848285016100ba565b91505092915050565b6080516108a061011d60003960008181606301526101fd01526108a06000f3fe608060405234801561001057600080fd5b50600436106100365760003560e01c806325468b1e1461003b5780639e0df9c714610057575b600080fd5b610055600480360381019061005091906104bc565b610061565b005b61005f6101fb565b005b7f000000000000000000000000000000000000000000000000000000000000000073ffffffffffffffffffffffffffffffffffffffff163373ffffffffffffffffffffffffffffffffffffffff16146100e6576040517f82b4290000000000000000000000000000000000000000000000000000000000815260040160405180910390fd5b6100ee610282565b6040518060c001604052808881526020018781526020018681526020018573ffffffffffffffffffffffffffffffffffffffff168152602001848152602001838152509050600081908060018154018082558091505060019003906000526020600020906006020160009091909190915060008201518160000155602082015181600101556040820151816002015560608201518160030160006101000a81548173ffffffffffffffffffffffffffffffffffffffff021916908373ffffffffffffffffffffffffffffffffffffffff16021790555060808201518160040190816101d99190610798565b5060a08201518160050190816101ef9190610798565b50505050505050505050565b7f000000000000000000000000000000000000000000000000000000000000000073ffffffffffffffffffffffffffffffffffffffff163373ffffffffffffffffffffffffffffffffffffffff1614610280576040517f82b4290000000000000000000000000000000000000000000000000000000000815260040160405180910390fd5b565b6040518060c00160405280600081526020016000815260200160008152602001600073ffffffffffffffffffffffffffffffffffffffff16815260200160608152602001606081525090565b6000604051905090565b600080fd5b600080fd5b6000819050919050565b6102f5816102e2565b811461030057600080fd5b50565b600081359050610312816102ec565b92915050565b600073ffffffffffffffffffffffffffffffffffffffff82169050919050565b600061034382610318565b9050919050565b61035381610338565b811461035e57600080fd5b50565b6000813590506103708161034a565b92915050565b600080fd5b600080fd5b6000601f19601f8301169050919050565b7f4e487b7100000000000000000000000000000000000000000000000000000000600052604160045260246000fd5b6103c982610380565b810181811067ffffffffffffffff821117156103e8576103e7610391565b5b80604052505050565b60006103fb6102ce565b905061040782826103c0565b919050565b600067ffffffffffffffff82111561042757610426610391565b5b61043082610380565b9050602081019050919050565b82818337600083830152505050565b600061045f61045a8461040c565b6103f1565b90508281526020810184848401111561047b5761047a61037b565b5b61048684828561043d565b509392505050565b600082601f8301126104a3576104a2610376565b5b81356104b384826020860161044c565b91505092915050565b60008060008060008060c087890312156104d9576104d86102d8565b5b60006104e789828a01610303565b96505060206104f889828a01610303565b955050604061050989828a01610303565b945050606061051a89828a01610361565b935050608087013567ffffffffffffffff81111561053b5761053a6102dd565b5b61054789828a0161048e565b92505060a087013567ffffffffffffffff811115610568576105676102dd565b5b61057489828a0161048e565b9150509295509295509295565b600081519050919050565b7f4e487b7100000000000000000000000000000000000000000000000000000000600052602260045260246000fd5b600060028204905060018216806105d357607f821691505b6020821081036105e6576105e561058c565b5b50919050565b60008190508160005260206000209050919050565b60006020601f8301049050919050565b600082821b905092915050565b60006008830261064e7fffffffffffffffffffffffffffffffffffffffffffffffffffffffffffffffff82610611565b6106588683610611565b95508019841693508086168417925050509392505050565b6000819050919050565b600061069561069061068b846102e2565b610670565b6102e2565b9050919050565b6000819050919050565b6106af8361067a565b6106c36106bb8261069c565b84845461061e565b825550505050565b600090565b6106d86106cb565b6106e38184846106a6565b505050565b5b81811015610707576106fc6000826106d0565b6001810190506106e9565b5050565b601f82111561074c5761071d816105ec565b61072684610601565b81016020851015610735578190505b61074961074185610601565b8301826106e8565b50505b505050565b600082821c905092915050565b600061076f60001984600802610751565b1980831691505092915050565b6000610788838361075e565b9150826002028217905092915050565b6107a182610581565b67ffffffffffffffff8111156107ba576107b9610391565b5b6107c482546105bb565b6107cf82828561070b565b600060209050601f83116001811461080257600084156107f0578287015190505b6107fa858261077c565b865550610862565b601f198416610810866105ec565b60005b8281101561083857848901518255600182019150602085019450602081019050610813565b868310156108555784890151610851601f89168261075e565b8355505b6001600288020188555050505b50505050505056fea26469706673582212200d8f43ac0e714d11a1a8e1dba7634e75933fd2380521da01fa72bf068961ae2864736f6c63430008120033",
  "linkReferences": {},
  "deployedLinkReferences": {}
}